:030000000201EB0F
:0C01EB00787FE4F6D8FD75812102023215
:10029B00101205DC05DC05DC05DC05DC05DC05DC0A
:0602AB0005DC0210000159
:040277007FE87E039B
:10027B00E4FDFCE4FBFAC3EB9FEA9E50070BBB00CB
:0F028B00010A80F20DBD00010CED64554C70E4CA
:01029A002241
:1002B2005389F0438901E4F58AF58CC28DD28CD240
:0202C200A9226F
:1002C400C374FF9FFF74FF9EC28C8F8AF58CD28CFF
:0102D4002207
:100143001202B2D2AFE4FFEF25E02412F8760108E1
:1001530076F40FBF08F1120277E4FFEF25E02412D3
:10016300F876030876E80FBF08F1120277E4FFEF91
:1001730025E02412F876050876DC0FBF08F1120299
:1001830077E4FFEF25E02412F876070876D00FBF57
:1001930008F1120277E4FFEF25E02412F87609084C
:1001A30076C40FBF08F1120277E4FFEF25E02412B3
:1001B300F876070876D00FBF08F1120277E4FFEF55
:1001C30025E02412F876050876DC0FBF08F1120249
:1001D30077E4FFEF25E02412F876030876E80FBFF3
:0801E30008F112027702014845
:03000B0002000EE2
:0D000E00C0E0C0F0C083C082C0D075D00833
:10001B00E5106003020130E51114B4100040030237
:10002B00013090003B75F003A4C58325F0C58373A5
:10003B0002006B02007402008402008D02009C021D
:10004B0000A40200B30200BB0200CA0200D20200ED
:10005B00E10200E90200F802010002010F02011A9D
:10006B00D280AF13AE12020115C280C374C49513B4
:10007B00FF74099512FE020115D281AF15AE140261
:10008B000115C281C374C49515FF74099514FE80C4
:10009B0079D282AF17AE168071C282C374C4951722
:1000AB00FF74099516FE8062D283AF19AE18805A81
:1000BB00C283C374C49519FF74099518FE804BD283
:1000CB0084AF1BAE1A8043C284C374C4951BFF74E8
:1000DB0009951AFE8034D285AF1DAE1C802CC285CB
:1000EB00C374C4951DFF7409951CFE801DD286AF89
:1000FB001FAE1E8015C286C374C4951FFF7409956D
:10010B001EFE8006D287AF21AE201202C48016C21B
:10011B0087C374C49521FF74099520FE1202C47520
:0D012B0010007511000511E511700205109E
:0B013800D0D0D082D083D0F0D0E032D5
:1001F700020143E493A3F8E493A34003F68001F2DA
:1002070008DFF48029E493A3F85407240CC8C33308
:10021700C4540F4420C8834004F456800146F6DFD7
:10022700E4800B010204081020408090029BE47ECA
:10023700019360BCA3FF543F30E509541FFEE493CC
:10024700A360010ECF54C025E060A840B8E493A393
:10025700FAE493A3F8E493A3C8C582C8CAC583CABE
:10026700F0A3C8C582C8CAC583CADFE9DEE780BE76
:0102B100004C
:00000001FF
