:0300000002000EED
:0C000E00787FE4F6D8FD758113020055E0
:08016900021205DC0210000186
:09011D001201267512037513E8A6
:10012600E4FDFCE4FBFAC3EB9FEA9E50070BBB0021
:0F013600010A80F20DBD00010CED64554C70E420
:010145002297
:100146005389F0438901E4F58AF58CC28DD28CD2AD
:02015600A922DC
:10015800C374FF9FFF74FF9EC28C8F8AF58CD28C6C
:010168002274
:1000DC00120146D2AF7512017513F47FE87E03123C
:1000EC00011D7512057513DC1201267512077513A7
:1000FC00D01201267512097513C412012675120748
:10010C007513D01201267512057513DC12011D80B2
:01011C00C41E
:03000B0002009A56
:07009A00C0E0C0D075D008E2
:1000A100E510702AE51124FE600E047021D280AFA4
:1000B10013AE121201588016C280C374209513FF2B
:1000C100744E9512FE12015875100075110005113C
:0600D100E51170020510AC
:0500D700D0D0D0E032A2
:10001A000200DCE493A3F8E493A34003F68001F220
:10002A0008DFF48029E493A3F85407240CC8C333E7
:10003A00C4540F4420C8834004F456800146F6DFB6
:10004A00E4800B0102040810204080900169E47EDC
:10005A00019360BCA3FF543F30E509541FFEE493AB
:10006A00A360010ECF54C025E060A840B8E493A372
:10007A00FAE493A3F8E493A3C8C582C8CAC583CA9D
:10008A00F0A3C8C582C8CAC583CADFE9DEE780BE55
:01017100008D
:00000001FF
