:030000000203B93F
:0C03B900787FE4F6D8FD75812002040076
:1004F200021C05DC021805DCC101C102021A07D088
:06050200C100021200011D
:1004CD00E4FDFCC3ED9455EC94005018E4FBFAC325
:1004DD00EB9FEA9E50070BEB70010A80F20DED7059
:0404ED00010C80DF9F
:0104F10022E8
:100509005389F0438901E4F58AF58CC28DD28CD2E6
:02051900A92215
:10051B00C374FF9FFF74FF9EFEC28C8F8AF58CD233
:01052B008C43
:01052C0022AC
:1002E70030000302037E20020302037EC202AE1A1D
:1002F700AF1B7C007D141202848E108F11D3E51979
:10030700951DE518951C4023E519951DFDE51895E4
:100317001CFCE41201CA8F178E168D158C1412015E
:10032700B48F178E168D158C148017C3E51D95197C
:10033700FDE51C9518FCE41201CA8F178E168D1562
:100347008C14AF17AE16AD15AC14C004C005C006AB
:10035700C007AC10AD11E41201CAA804A905AA068A
:10036700AB07D007D006D005D0041201178F178E20
:10037700168D158C14D200300037E5111511700257
:100387001510E5114510700985181C85191DC20047
:1003970022AC10AD11E41201CAAB17AA16A915A811
:1003A7001412000E120203E5192FF51DE5183EF58C
:0103B7001C29
:0103B8002222
:10044500120509D2AF30010D051FE51F7002051E0B
:10045500C2011202E7D3E51F946EE51E940040E544
:10046500E4F51EF51FB2A7E519B4F40DE518B401BE
:10047500087518097519C480067518017519F4D21F
:030485000280C230
:010488002251
:03000B0002048963
:07048900C0E0C0D075D008EF
:10049000E512702CE51324FE6010047023D280AFA7
:1004A0001DAE1C12051BD2018016C280C37420959C
:1004B0001DFF744E951CFE12051B7512007513006E
:0804C0000513E513700205129B
:0504C800D0D0D0E032AD
:10000E00EC4D6011E8497017ED33EC3304600DE4EC
:10001E00FCFFFEFD22E933E8330470F802026F1292
:10002E00023A58046009E4CC248150062850090293
:10003E000279284003020276C0E0EB4A7044B98090
:10004E0006D0E0FB020265EF4E701CBD8008EBFF90
:10005E00EAFEE9FD80EBE98DF0A4FEE5F00200F783
:10006E00E9CDF9EAFEEBFFEF89F0A4FCE5F0CE89CD
:10007E00F0A42EFFE435F0CD89F0A42DFEE435F08A
:10008E008067EF4E7005BD80D780C3EF8BF0A4ACB8
:10009E00F0EE8BF0A42CFCE435F0F8EF8AF0A42CF3
:1000AE00E5F038FCE433CB8DF0A42CFCE5F03BF806
:1000BE00EE8AF0A42CFCE5F038F8E433CF89F0A4F6
:1000CE002CFCE5F038CF3400CE89F0A42FFFE5F0FC
:1000DE003EFEE433C98DF0A42EFEE5F039CD8AF054
:1000EE00A42FFFE5F03EFEE43DFD33D0E0FB5007CC
:1000FE000BBB000F020279EC2CFCEF33FFEE33FE4C
:06010E00ED33FD02025179
:10011400020279EC5D046005E85904700302026F81
:1001240012023A580460F6EC4860F2EC7004FDFEEA
:10013400FF22C860DB2481C85009C39860025006BE
:100144000202769850CAF582E9294B4A7005AB82BF
:1001540002026575F0007C1A7880C3EF9BEE9AED7D
:1001640099400DC3EF9BFFEE9AFEED99FDE842F036
:10017400DC23ACF0D0E0FFD0E0FED0E0FDAB822089
:10018400E7101BEB60BAEC2CFCEF33FFEE33FEED13
:1001940033FD020251E803F830E705C0F075F000C2
:1001A400EF2FFFEE33FEED33FD40B830E7C280AAF7
:1001B400ED33EC33600A047003BD8004ECB2E7FC59
:0101C4002218
:1001C50075F020800E75F010800575F0087D007EB5
:1001D500007F003392D530D5031202D9EC3340109D
:1001E500EF33FFEE33FEED33FDEC33FCD5F0ED22BE
:0E01F500E5F0247EA2D513CC92E7CDCEFF22FA
:10020300EDD2E7CD33EC3392D524814006E4FFFEF3
:10021300FDFC22FCE4CFCECDCC24E0501174FF8052
:10022300EDC3CC13CCCD13CDCE13CECF13CF0470EF
:07023300F030D5DE0202D914
:10023A00E9D2E7C933E833F892D5EDD2E7CD33EC0A
:07024A0033FC5002B2D52283
:10025100EC30E7100FBF000C0EBE00080DBD00040E
:100261000BEB6014A2D5EB13FCED92E7FD2274FFBA
:10027100FCFDFEFF22E480F8A2D574FF13FC7D8013
:03028100E480EF27
:1003C500020445E493A3F8E493A34003F68001F205
:1003D50008DFF48029E493A3F85407240CC8C33339
:1003E500C4540F4420C8834004F456800146F6DF08
:1003F500E4800B01020408102040809004F2E47EA2
:10040500019360BCA3FF543F30E509541FFEE493FC
:10041500A360010ECF54C025E060A840B8E493A3C3
:10042500FAE493A3F8E493A3C8C582C8CAC583CAEE
:10043500F0A3C8C582C8CAC583CADFE9DEE780BEA6
:0105080000F2
:10028400BC000BBE0029EF8DF084FFADF022E4CC5E
:10029400F875F008EF2FFFEE33FEEC33FCEE9DEC27
:1002A400984005FCEE9DFE0FD5F0E9E4CEFD22ED6D
:1002B400F8F5F0EE8420D21CFEADF075F008EF2FB7
:1002C400FFED33FD4007985006D5F0F222C398FDA8
:0502D4000FD5F0EA2245
:0E02D900C3E49FFFE49EFEE49DFDE49CFC2236
:00000001FF
