:020000040800F2
:1000000078060020890100088D0100088F01000892
:10001000910100089301000895010008000000000C
:100020000000000000000000000000009701000830
:1000300099010008000000009B0100089D010008D4
:100040009F0100089F0100089F0100089F01000810
:100050009F0100089F0100089F0100089F01000800
:100060009F0100089F0100089F0100089F010008F0
:100070009F0100089F0100089F0100089F010008E0
:100080009F0100089F0100089F0100089F010008D0
:100090009F0100089F0100089F0100089F010008C0
:1000A0009F0100089F0100089F0100089F010008B0
:1000B0009F010008DB0500089F0100089F01000860
:1000C0009F0100089F0100089F0100089F01000890
:1000D0009F0100089F0100089F0100089F01000880
:1000E0009F0100089F0100089F01000800F002F82E
:1000F00000F03AF80AA090E8000C82448344AAF188
:100100000107DA4501D100F02FF8AFF2090EBAE885
:100110000F0013F0010F18BFFB1A43F0010318473B
:100120002C0700004C070000103A24BF78C878C1A3
:10013000FAD8520724BF30C830C144BF04680C60ED
:10014000704700000023002400250026103A28BF35
:1001500078C1FBD8520728BF30C148BF0B60704739
:100160001FB51FBD10B510BD00F038FB1146FFF7DD
:10017000F7FF00F01FFB00F056FB03B4FFF7F2FFA0
:1001800003BC00F05BFB000008480047FEE7FEE709
:10019000FEE7FEE7FEE7FEE7FEE7FEE7FEE7FEE737
:1001A00003480449044A054B70470000ED0000086D
:1001B00078000020780600207802002078020020D5
:1001C0004FF0E021096921F004014FF0E0221161B4
:1001D000C21700EB5272D2109F4B1A701946097861
:1001E00001EB4102C2EBC1114FF6FF7202EAC101FD
:1001F0009A4A118070470146984A12884A434FF044
:10020000E0235A6100229A6101221A6100BF4FF077
:10021000E022106910F0010F02D010F4803FF6D0F8
:1002200000224FF0E0231A619A61704701468A4A22
:1002300012784A434FF0E0235A6100229A6101226A
:100240001A6100BF4FF0E022106910F0010F02D0D8
:1002500010F4803FF6D000224FF0E0231A619A613B
:1002600070477F4A0A4002437E4B1A60704701463E
:10027000072323EA010212027A4B1B1D18684FF66E
:10028000FF031840784B18431043764B1B1D186032
:1002900070472DE9F0478046894614461D462046A2
:1002A000E11704EB91714FEAA10AE11704EB917198
:1002B0008910A4EB8101CFB2042000EBC700C7B2C4
:1002C0002846FFF7D4FFC5F1040008FA00F60F2016
:1002D000284100EA0900064306F00F06202C0CDA3C
:1002E000624800684FF0010101FA04F140EA0100A0
:1002F0004FF0E021C1F800010DE05D480068A4F175
:1003000020014FF0010202FA01F240EA02004FF030
:10031000E021C1F80401574850F82A0006FA07F115
:1003200040EA0100534941F82A00BDE8F08700B5D2
:10033000002051490861C86014204861002088618C
:10034000C8610846006840F001000860084640683F
:100350004A490840484948600846006848490840FA
:10036000454908600846006820F480200860084677
:10037000406820F4FE0048600020886000214FF0B3
:100380000060FFF76EFF00BD30B504460025FFF7A3
:10039000CEFF3948006840F480303749086000BF1C
:1003A00035480068400CFBD04FF48060324948600B
:1003B000A01EC4B20846406840EA8440486008462F
:1003C000406840F4803048602E48006840F03200B9
:1003D0002C4908602848006840F080702649086071
:1003E00000BF25480068400EFBD02348406840F01D
:1003F00002002149486005E01F484068C0F38705B6
:1004000005F00305022DF7D130BD30B505460C4689
:100410001948C06940F002001749C861681E1A49AE
:100420000880601E091F088017482038008840F0A7
:10043000010015492039088013482C38008840F005
:10044000010011492C39088002231D2203210120BB
:10045000FFF71FFF30BD0000000000200200002059
:1004600080FFFF1F08ED00E00000FA0500E100E05A
:1004700004E100E000E400E0001002400000FFF8AA
:10048000FFFFF6FE002002402C040040BB488069BC
:1004900040F00400B94988610846806940F00800CE
:1004A0008861B748006820F00F00B5490860084629
:1004B000006840F003000860B1480830006840F46C
:1004C0008070AF4908310860AE4800680020AD492F
:1004D00008600846006840F033300860704710B587
:1004E000002406E04FF4FA70A74921F81400601CBC
:1004F000C4B2082CF6DB4FF47A70FFF77CFE0024C0
:1005000006E04FF47A70A04921F81400601CC4B2D0
:10051000082CF6DB4FF47A70FFF76DFE002406E03E
:1005200040F2DC50984921F81400601CC4B2082C39
:10053000F6DB4FF47A70FFF75EFE002406E04FF41E
:10054000FA60914921F81400601CC4B2082CF6DB53
:100550004FF47A70FFF74FFE002406E040F6C41017
:10056000894921F81400601CC4B2082CF6DB4FF452
:100570007A70FFF740FE002406E04FF4FA608249EB
:1005800021F81400601CC4B2082CF6DB4FF47A701A
:10059000FFF731FE002406E040F2DC507A4921F8F2
:1005A0001400601CC4B2082CF6DB4FF47A70FFF71D
:1005B00022FE002406E04FF47A70734921F81400FB
:1005C000601CC4B2082CF6DB4FF47A70FFF713FE00
:1005D00010BD411C6D4A1180704700B56B481C3836
:1005E000008810F0010F77D069480088112811D2D7
:1005F000DFE800F0B509111E26333B48505D6573F6
:100600007B88909DA5000120624908605E490888AA
:10061000FFF7DFFFA3E000205E4908605A49098820
:1006200040F6C412A2EB010188B2FFF7D2FF96E0B8
:1006300001205949086054494888FFF7CAFF8EE0F5
:100640000020554908605049498840F6C412A2EB81
:10065000010188B2FFF7BDFF81E001204F4908602A
:1006600049498888FFF7B5FF79E000204B490860C9
:100670004549898840F6C412A2EB010188B2FFF710
:10068000A8FF6CE00120464908603F49C888FFF791
:10069000A0FF64E00020424908603B49C98840F659
:1006A000C412A2EB010188B2FFF793FF57E00120CB
:1006B0003C49086034490889FFF78BFF4FE0002070
:1006C000384908603049098940F6C412A2EB01019B
:1006D00088B2FFF77EFF42E047E001203249086020
:1006E00029494889FFF775FF39E000202E49086045
:1006F0002549498940F6C412A2EB010188B2FFF7EF
:1007000068FF2CE00120294908601F498889FFF70C
:1007100060FF24E00020254908601B49898940F6D4
:10072000C412A2EB010188B2FFF753FF17E00120CA
:100730001F4908601449C889FFF74BFF0FE00020EC
:100740001B4908601049C98940F6C412A2EB010197
:1007500088B2FFF73EFF00200D49088000BF00BFB0
:100760000B480088401C0A49088008481C3800884B
:1007700020F0010005491C39088000BD001002402E
:1007800004080140040C0140040000202C04004037
:1007900014000020A0812142A4812142A88121428D
:1007A000AC812142B0812142B4812142B8812142F1
:1007B000BC8121420920FFF7E7FD4820FFF700FD3B
:1007C000482142F21070FFF720FEFFF75FFE00BFE6
:1007D000FFF785FEFCE7704770477047754600F0ED
:1007E00029F8AE4605006946534620F007008546C5
:1007F00018B020B5FFF7D4FCBDE820404FF000064C
:100800004FF000074FF000084FF0000B21F00701F8
:10081000AC46ACE8C009ACE8C009ACE8C009ACE83B
:10082000C0098D4670470446AFF300802046FFF7AD
:10083000A4FC00000048704718000020014918205F
:10084000ABBEFEE726000200704700006C080008FF
:10085000000000201800000028010008840800089B
:10086000180000206006000044010008000000009D
:10087000DC05DC05DC05DC05DC05DC05DC05DC0570
:040880000100000073
:04000005080000ED02
:00000001FF
