:020000040800F2
:10000000D8060020890100088D0100088F01000832
:10001000910100089301000895010008000000000C
:100020000000000000000000000000009701000830
:1000300099010008000000009B0100089D010008D4
:100040009F0100089F0100089F0100089F01000810
:100050009F0100089F0100089F0100089F01000800
:100060009F0100089F0100089F0100089F010008F0
:100070009F0100089F0100089F0100089F010008E0
:100080009F0100089F0100089F0100089F010008D0
:100090009F0100089F0100089F0100089F010008C0
:1000A0009F0100089F0100089F0100089F010008B0
:1000B0009F010008A70600089F0100089F01000893
:1000C0009F0100089F0100089F0100089F01000890
:1000D0009F0100089F0100089F0100089F01000880
:1000E0009F0100089F0100089F01000800F002F82E
:1000F00000F03AF80AA090E8000C82448344AAF188
:100100000107DA4501D100F02FF8AFF2090EBAE885
:100110000F0013F0010F18BFFB1A43F0010318473B
:10012000B80D0000D80D0000103A24BF78C878C17F
:10013000FAD8520724BF30C830C144BF04680C60ED
:10014000704700000023002400250026103A28BF35
:1001500078C1FBD8520728BF30C148BF0B60704739
:100160001FB51FBD10B510BD00F0CEFB1146FFF747
:10017000F7FF00F0B5FB00F0ECFB03B4FFF7F2FF74
:1001800003BC00F0F1FB000008480047FEE7FEE773
:10019000FEE7FEE7FEE7FEE7FEE7FEE7FEE7FEE737
:1001A00003480449044A054B70470000ED0000086D
:1001B000D8000020D8060020D8020020D802002055
:1001C0004FF0E021096921F004014FF0E0221161B4
:1001D000C21700EB5272D2109F4B1A701946097861
:1001E00001EB4102C2EBC1114FF6FF7202EAC101FD
:1001F0009A4A118070470146984A12884A434FF044
:10020000E0235A6100229A6101221A6100BF4FF077
:10021000E022106910F0010F02D010F4803FF6D0F8
:1002200000224FF0E0231A619A61704701468A4A22
:1002300012784A434FF0E0235A6100229A6101226A
:100240001A6100BF4FF0E022106910F0010F02D0D8
:1002500010F4803FF6D000224FF0E0231A619A613B
:1002600070477F4A0A4002437E4B1A60704701463E
:10027000072323EA010212027A4B1B1D18684FF66E
:10028000FF031840784B18431043764B1B1D186032
:1002900070472DE9F0478046894614461D462046A2
:1002A000E11704EB91714FEAA10AE11704EB917198
:1002B0008910A4EB8101CFB2042000EBC700C7B2C4
:1002C0002846FFF7D4FFC5F1040008FA00F60F2016
:1002D000284100EA0900064306F00F06202C0CDA3C
:1002E000624800684FF0010101FA04F140EA0100A0
:1002F0004FF0E021C1F800010DE05D480068A4F175
:1003000020014FF0010202FA01F240EA02004FF030
:10031000E021C1F80401574850F82A0006FA07F115
:1003200040EA0100534941F82A00BDE8F08700B5D2
:10033000002051490861C86014204861002088618C
:10034000C8610846006840F001000860084640683F
:100350004A490840484948600846006848490840FA
:10036000454908600846006820F480200860084677
:10037000406820F4FE0048600020886000214FF0B3
:100380000060FFF76EFF00BD30B504460025FFF7A3
:10039000CEFF3948006840F480303749086000BF1C
:1003A00035480068400CFBD04FF48060324948600B
:1003B000A01EC4B20846406840EA8440486008462F
:1003C000406840F4803048602E48006840F03200B9
:1003D0002C4908602848006840F080702649086071
:1003E00000BF25480068400EFBD02348406840F01D
:1003F00002002149486005E01F484068C0F38705B6
:1004000005F00305022DF7D130BD30B505460C4689
:100410001948C06940F002001749C861681E1A49AE
:100420000880601E091F088017482038008840F0A7
:10043000010015492039088013482C38008840F005
:10044000010011492C39088002231D2203210120BB
:10045000FFF71FFF30BD0000000000200200002059
:1004600080FFFF1F08ED00E00000FA0500E100E05A
:1004700004E100E000E400E0001002400000FFF8AA
:10048000FFFFF6FE002002402C040040FB4880697C
:1004900040F00400F94988610846806940F008008E
:1004A0008861F748006820F00F00F54908600846A9
:1004B000006840F003000860F1480830006840F42C
:1004C0008070EF4908310860EE4800680020ED496F
:1004D00008600846006840F03330086070472DE936
:1004E000F047E948007800285AD1E8480078002809
:1004F00056D00020E5490870E5480088142190FB9B
:10050000F1F0E44908804FF0000A43E0E24830F897
:100510001A00E24931F81A10884217DDDE4931F835
:100520001A10DE4A32F81A20881A00F0ACFBDC4AB6
:1005300002EBCA0203C2DA4800EBCA0103C981F028
:100540000041D74A02EBCA0203C20CE0D34931F89A
:100550001A10D14A32F81A20881A00F094FBD04AB7
:1005600002EBCA0203C2CB48008800F0A3FB064698
:10057000CB4800EBCA0032460B4630C8204629461D
:1005800000F0FAF9C64A02EBCA0203C20AF10100FE
:1005900000F0FF0ABAF1080FB8DB0120BA49087071
:1005A000B948007898B3BB480088401EB949088014
:1005B0004FF0000A28E0B748008848B9B64830F83C
:1005C0001A00B64921F81A000020AF49087017E058
:1005D000B048008800F06EFB0446B14800EBCA004A
:1005E000D0E900633246204600F078FB804600F0F8
:1005F0001BFBA94931F81A100844A84921F81A0030
:100600000AF1010000F0FF0ABAF1080FD3DBBDE8E0
:10061000F08710B5A348007858B10020A1490870B0
:10062000A1490870A1480088401CA0490880FFF734
:1006300056FF9E4800886E2830DD00209B490880C8
:100640009B4800686FEA00009A49C1F8A0019248EF
:100650000088B0F5FA7F0FD140F6C4108E490880AB
:10066000012406E04FF4FA708B4921F81400601C55
:10067000C4B2082CF6DB0EE04FF4FA70864908800D
:10068000012406E040F2DC50834921F81400601C8C
:10069000C4B2082CF6DB01207C49087010BD411C57
:1006A000854A1180704700B583481C38008810F0D7
:1006B000010F70D081480088112816D2DFE800F0C1
:1006C000CF0916232E3B46535E6C77848F9CA7B4CC
:1006D000BF0001207A49086070490888FFF7DFFFF2
:1006E00001207049087070490870B8E00020744912
:1006F00008606A49098840F6C412A2EB010188B279
:10070000FFF7CDFFABE001206E49086063494888E0
:10071000FFF7C5FF012064490870A0E00020694987
:1007200008605E49498840F6C412A2EB010188B214
:10073000FFF7B5FF93E001206349086057498888B7
:10074000FFF7ADFF01205849087088E000205E499E
:1007500008605249898840F6C412A2EB010188B2B0
:10076000FFF79DFF7BE00120584908604B49C8888E
:10077000FFF795FF01204C49087070E000205349B5
:1007800008604649C98840F6C412A2EB010188B24C
:10079000FFF785FF63E068E001204D4908603F49AD
:1007A0000889FFF77CFF01203F49087057E00020CF
:1007B000474908603949098940F6C412A2EB010192
:1007C00088B2FFF76CFF4AE00120424908603349D4
:1007D0004889FFF764FF0120334908703FE000209B
:1007E0003C4908602D49498940F6C412A2EB010139
:1007F00088B2FFF754FF32E00120374908602749EB
:100800008889FFF74CFF01202749087027E0002066
:10081000314908602149898940F6C412A2EB0101DF
:1008200088B2FFF73CFF1AE001202C4908601B4901
:10083000C889FFF734FF01201B4908700FE0002032
:10084000264908601549C98940F6C412A2EB010186
:1008500088B2FFF724FF00201849088000BF00BFBE
:1008600016480088401C1549088013481C38008829
:1008700020F0010010491C39088000BD0010024022
:1008800004080140040C01402E0000202600002036
:10089000280000202C00002014000020040000206C
:1008A0003800002024000020250000202A0000201D
:1008B000A0012142000021422C0400403000002011
:1008C000A0812142A4812142A8812142AC81214200
:1008D000B0812142B4812142B8812142BC812142B0
:1008E0000920FFF751FD4820FFF76AFC482142F23A
:1008F0001070FFF78AFDFFF7C9FD00BFFFF789FE03
:10090000FCE7704770477047754600F029F8AE461F
:1009100005006946534620F00700854618B020B50B
:10092000FFF73EFCBDE820404FF000064FF0000707
:100930004FF000084FF0000B21F00701AC46ACE887
:10094000C009ACE8C009ACE8C009ACE8C0098D46F4
:1009500070470446AFF300802046FFF70EFC00000E
:10096000004870477800002001491820ABBEFEE720
:1009700026000200704700002DE9C04130B4DFF8C6
:10098000A0C23CEA111418BF3CEA131400F0EC803A
:1009900081EA03051CEA111444EAD57418BF1CEA65
:1009A000131500F0C780A4EB05044FF0004545EA9D
:1009B000C12145EAC32341EA505143EA525304F1AD
:1009C0007F74994204F500344FEAC0204FEAC222F6
:1009D00008BF904200F09C804FEA13650FF240166A
:1009E000765D4FEA134506FB05F7C7F1807706FBF6
:1009F00007F74FEAD737A7FB03687642C8F5803878
:100A0000A7FB06CE38BFA8F1010807FB08E64FF0A8
:100A1000000EA6FB028CE6FB03CEDCF1000CCEF14F
:100A2000004E38BFAEF1010EA6FB0C584FF0000788
:100A30004FF00005E6FB0E87A1FB08C6A0FB07CE22
:100A400016EB0E0645F10005E1FB076515F1E04EDA
:100A50007EBFA4F580345FEA46066D4116F180073B
:100A600045F100054FEA17274FEA066647EA056792
:100A7000A6F1DE46B6F1805F4FEA15251FD938464C
:100A800024F0010C05EBC471BCF1FE6F01EB0C11FD
:100A900002D8F0BCBDE8008124425CBF01F5801E95
:100AA0009EEAC47F02D4F0BCBDE80081244238D461
:100AB000F0BCA1F1C041BDE8004100F007BA4FEA27
:100AC000D22242EA43524FEAD323A7FB02864FEADF
:100AD000D02040EA415007FB03661EEA0E0F4FEAA2
:100AE000D12105FB026658BFA6EB0056B6EB0056B7
:100AF0004FEA520E4EEAC37E18EB0E0E56EB530E23
:100B0000BDD518EB02085E417F1C55F10005B6E724
:100B10004FF480154FF000074FF000064FF000082B
:100B2000ADE7F0BC4FF0000001F1C04101F0004121
:100B3000BDE8008111EA0C1F0CEA131500D00CE08F
:100B400013EA0C1F00F025804FF00000F0BC81EA92
:100B5000030101F00041BDE80081F0BCBDE80041A7
:100B600081EA030100F0B2B9F0BCBDE8004170B504
:100B700000F05EF9097EFC3E00F007B881EA03014F
:100B80004FF0000001F00041704781EA030100F0DE
:100B90009DB9F0BCBDE800414FF00000214970470D
:100BA000FFFDFBF9F7F5F4F2F0EEEDEBE9E8E6E432
:100BB000E3E1E0DEDDDBDAD8D7D5D4D3D1D0CFCDB9
:100BC000CCCBCAC8C7C6C5C4C2C1C0BFBEBDBCBBF2
:100BD000BAB9B8B7B6B5B4B3B2B1B0AFAEADACABED
:100BE000AAA9A8A8A7A6A5A4A3A3A2A1A09F9F9EC7
:100BF0009D9C9C9B9A999998979796959594939379
:100C0000929191908F8F8E8E8D8C8C8B8B8A89890F
:100C10008888878786858584848383828281818092
:100C20000000FF070000F87F4FEA41034FEA5353EB
:100C3000A3F58063D3F11E03C8BFD3F1210C0CDDF3
:100C40004FF0004242EAC12242EA505232FA03FC1B
:100C50008CEAE17CACEBE1707047102BC4BF002044
:100C6000704703F5787CBCF1FF3F04D06FF0004281
:100C700082EA2100704770B500F0DAF849922480CA
:100C800000207047F2E710F0004248BF4042B0FA3F
:100C900080F310FA03F10AD0C3F11D0303F580635A
:100CA0004FEA415002EB035202EBD12170474FF063
:100CB00000007047B0FA80F310FA03F10AD0C3F1D4
:100CC0001D0303F580634FEA41504FEA035202EBE4
:100CD000D12170474FF0000070470000DFF848C195
:100CE00070B51CEA111E1EBF1CEA13159EEA0C0FFC
:100CF00095EA0C0F00F06F8081EA030423EA4C139D
:100D00004EEAD47E21EA4C1141F4801143F4801361
:100D1000AE44A1FB024CA0FB0365AEF17F7E361909
:100D200055EB0C05A1FB034C4CF10003A0FB021C8E
:100D300016EB0C06654153F10003094218BF46F05B
:100D4000010613F4007F0BD14FEA03314FEA05305F
:100D5000340341EA155140EA16506FF003020AE0ED
:100D60004FEAC3214FEAC520F40241EA555140EA57
:100D700056506FF0020202EB2E4201EB025585EA5B
:100D8000CE710AD05FEA440C18BF24F0004450F141
:100D9000000041F1000120EAD47040F2FE7C62457F
:100DA00000D270BDA84214BF4FF080444FF04044C1
:100DB000002E08BF0024BEF1806FA8BFA1F1C04182
:100DC000BDE8704080F282804FF0000001F1C04128
:100DD00001F0004170479EEA0C0F0CEA131518BF92
:100DE00095EA0C0F06D04FF0000081EA030E0EF0DA
:100DF000004170BD00F01CF88900013E00F007B80A
:100E000000F009B84FEA430C5FEA5C5C08D081EA65
:100E1000030100F05BB84FEA410C5FEA5C5CF6D17D
:100E20004FF00000014970470000FF070000F87F05
:100E30000EF1020E2EF0030E5EF8046B364205D45E
:100E4000012A43EB030515F5001F12D8012841EBD9
:100E5000010C1CF5001F0CD80ED14FEAD17C15F502
:100E6000001F0CEB4C0C0CF1020C08BF4CEBD37CBC
:100E700004E04FF0080C01E04FEAD37C0CEB4C058A
:100E800026FA05F606F00706B6F1040C06D20EEBBC
:100E9000860CBDE870404CF0010C6047DFE80CF0B8
:100EA000090B02024FF000414FF00000A1F50021B4
:100EB00070BD19461046012851EB010418BFD4F546
:100EC000001484BF002001F0004170BD0808A0F5A7
:100ED00000114FEA31017047F80E000800000020B1
:100EE00034000000280100082C0F00083400002006
:100EF000A40600004401000800000000DC05DC0539
:100F0000DC05DC05DC05DC05DC05DC05DC05DC05D9
:100F1000DC05DC05DC05DC05DC05DC05000000008B
:0C0F2000D00700000000000001000000ED
:04000005080000ED02
:00000001FF
