:0300000002059561
:0C059500787FE4F6D8FD7581660205DC75
:10069200105705DC05DC05DC05DC05DC05DC05DCCA
:1006A20005DC104505DC05DC05DC05DC05DC05DCCC
:1006B20005DC05DCC102C101C103025507D0C1003E
:0406C200022300010E
:1006C700E4FDFCE4FBFAC3EB9FEA9E50070BBB007B
:0F06D700010A80F20DBD00010CBC03E7BD20E459
:0106E60022F1
:1006E7005389F0438901E4F58AF58CC28DD28CD207
:0206F700A92236
:1006F900C374FF9FFF74FF9EC28C8F8AF58CD28CC6
:0107090022CD
:10030C003000030203EC2003030203ECC203AE55DE
:10031C00AF567C007D141202848E218F22E4F513DB
:10032C00E51325E02457F8E6FE08E6FFE51325E083
:10033C002445F8E6FC08E6FDD39FEC9EE51340321D
:10034C0025E02457F8E6FE08E6FFC3ED9FFDEC9E82
:10035C00FCE41201CAE51325E025E02425F812037C
:10036C0000E51325E025E02425F81202E71201B47C
:10037C00801F25E02445F8E6FE08E6FFE51325E09E
:10038C002457F8E6FC08E6C39FFDEC9EFCE4120142
:10039C00CAE51325E025E02425F8120300E5132512
:1003AC00E025E02425F8C0001202E7C004C005C017
:1003BC0006C007AC21AD22E41201CAA804A905AA03
:1003CC0006AB07D007D006D005D004120117D00019
:1003DC001203000513E5136408600302032CD2001A
:1003EC0030006AE522152270021521E4F513E5228E
:1003FC004521701CE51325E02445F8E6FE08E6FFD0
:10040C00E51325E02457F8A60608A607C200803697
:10041C00AC21AD22E41201CAE51325E025E0242528
:10042C00F81202F312000E120203E51325E0244524
:10043C00F8E6FC08E62FFFEE3CFEE51325E024571A
:0D044C00F8A60608A6070513E513B408A1DD
:010459002280
:100621001206E7D2AF30020FC202C2010512E51273
:100631007002051112030CD3E512946EE5119400BA
:1006410040E3E4F511F512B2A7E546B4F423E5451C
:10065100B4011E7545097546C4751001E51025E004
:100661002445F876010876F40510E510B408ED800C
:100671001C7545017546F4751001E51025E024450A
:10068100F876050876DC0510E510B408EDD2038094
:0106910094D4
:03000B0002045A92
:0D045A00C0E0C0F0C083C082C0D075D008E3
:10046700E5236003020582E52414B410004003026B
:10047700058290048775F003A4C58325F0C58373AF
:100487000204B70204C70204D60204DF0204ED0225
:1004970004F502050302050B0205190205210205F1
:1004A7002F02053702054502054D02055F02056C5F
:1004B700D280AF58AE571206F9D202D20102058296
:1004C700C280C374C49558FF74099557020559D261
:1004D70081AF5AAE59020565C281C374C4955AFFEC
:1004E70074099559806CD282AF5CAE5B8070C28212
:1004F700C374C4955CFF7409955B8056D283AF5E65
:10050700AE5D805AC283C374C4955EFF7409955D5E
:100517008040D284AF60AE5F8044C284C374C49508
:1005270060FF7409955F802AD285AF62AE61802E25
:10053700C285C374C49562FF740995618014D2861D
:10054700AF64AE638018C286C374C49564FF740930
:100557009563FE1206F98023D287AF66AE65120651
:10056700F9D2018016C287C374C49566FF740995D2
:1005770065FE1206F97523007524000524E524702D
:0305870002052347
:0B058A00D0D0D082D083D0F0D0E0327F
:10000E00EC4D6011E8497017ED33EC3304600DE4EC
:10001E00FCFFFEFD22E933E8330470F802026F1292
:10002E00023A58046009E4CC248150062850090293
:10003E000279284003020276C0E0EB4A7044B98090
:10004E0006D0E0FB020265EF4E701CBD8008EBFF90
:10005E00EAFEE9FD80EBE98DF0A4FEE5F00200F783
:10006E00E9CDF9EAFEEBFFEF89F0A4FCE5F0CE89CD
:10007E00F0A42EFFE435F0CD89F0A42DFEE435F08A
:10008E008067EF4E7005BD80D780C3EF8BF0A4ACB8
:10009E00F0EE8BF0A42CFCE435F0F8EF8AF0A42CF3
:1000AE00E5F038FCE433CB8DF0A42CFCE5F03BF806
:1000BE00EE8AF0A42CFCE5F038F8E433CF89F0A4F6
:1000CE002CFCE5F038CF3400CE89F0A42FFFE5F0FC
:1000DE003EFEE433C98DF0A42EFEE5F039CD8AF054
:1000EE00A42FFFE5F03EFEE43DFD33D0E0FB5007CC
:1000FE000BBB000F020279EC2CFCEF33FFEE33FE4C
:06010E00ED33FD02025179
:10011400020279EC5D046005E85904700302026F81
:1001240012023A580460F6EC4860F2EC7004FDFEEA
:10013400FF22C860DB2481C85009C39860025006BE
:100144000202769850CAF582E9294B4A7005AB82BF
:1001540002026575F0007C1A7880C3EF9BEE9AED7D
:1001640099400DC3EF9BFFEE9AFEED99FDE842F036
:10017400DC23ACF0D0E0FFD0E0FED0E0FDAB822089
:10018400E7101BEB60BAEC2CFCEF33FFEE33FEED13
:1001940033FD020251E803F830E705C0F075F000C2
:1001A400EF2FFFEE33FEED33FD40B830E7C280AAF7
:1001B400ED33EC33600A047003BD8004ECB2E7FC59
:0101C4002218
:1001C50075F020800E75F010800575F0087D007EB5
:1001D500007F003392D530D5031202D9EC3340109D
:1001E500EF33FFEE33FEED33FDEC33FCD5F0ED22BE
:0E01F500E5F0247EA2D513CC92E7CDCEFF22FA
:10020300EDD2E7CD33EC3392D524814006E4FFFEF3
:10021300FDFC22FCE4CFCECDCC24E0501174FF8052
:10022300EDC3CC13CCCD13CDCE13CECF13CF0470EF
:07023300F030D5DE0202D914
:10023A00E9D2E7C933E833F892D5EDD2E7CD33EC0A
:07024A0033FC5002B2D52283
:10025100EC30E7100FBF000C0EBE00080DBD00040E
:100261000BEB6014A2D5EB13FCED92E7FD2274FFBA
:10027100FCFDFEFF22E480F8A2D574FF13FC7D8013
:03028100E480EF27
:1005A100020621E493A3F8E493A34003F68001F249
:1005B10008DFF48029E493A3F85407240CC8C3335B
:1005C100C4540F4420C8834004F456800146F6DF2A
:1005D100E4800B0102040810204080900692E47E22
:1005E100019360BCA3FF543F30E509541FFEE4931F
:1005F100A360010ECF54C025E060A840B8E493A3E6
:10060100FAE493A3F8E493A3C8C582C8CAC583CA10
:10061100F0A3C8C582C8CAC583CADFE9DEE780BEC8
:0106C6000033
:10028400BC000BBE0029EF8DF084FFADF022E4CC5E
:10029400F875F008EF2FFFEE33FEEC33FCEE9DEC27
:1002A400984005FCEE9DFE0FD5F0E9E4CEFD22ED6D
:1002B400F8F5F0EE8420D21CFEADF075F008EF2FB7
:1002C400FFED33FD4007985006D5F0F222C398FDA8
:0502D4000FD5F0EA2245
:0E02D900C3E49FFFE49EFEE49DFDE49CFC2236
:0C02E700E6FC08E6FD08E6FE08E6FF2243
:0D02F300E6FB08E6F908E6FA08E6CBF8227B
:0C030000ECF608EDF608EEF608EFF62229
:00000001FF
